:020000000A28CC
:10000800FE000308F0000A08F100FD2827297130D6
:1000180083168F000F309000013085008312850110
:100028009501073099009F0183169F0181171516C6
:100038008B010B178B1710308E00893092004F30D0
:100048008312920083168C100B178B174E2172089F
:100058008312AE00AB01AB0AAC012E0803193B2892
:100068002E08FF3A03193B282E08AB00AC012B08D9
:10007800AE008514FF30F2000130CE2083128510C7
:100088008312B208031D542805189728051C4A280E
:10009800B201B20A83168C146430F200023096283A
:1000A8003208031D05189728AD0105188528AD0AE3
:1000B8000230AA000330A900BA30A800A80B6228B1
:1000C800A90B6228AA0B6228333083122D02031C65
:1000D8005928AD01B20183168C108312B301AF0108
:1000E800B0012E083D216430F2000530CE200130E9
:1000F800831696008B150B1085008312850163000B
:10010800592832080319972804302E020318912819
:10011800AE0A6430F2002E089628AE01AE0A6430AA
:10012800F2000130CE20831203102E0D1E3E8400F3
:1001380083130008A800840A0008A90030082902CF
:10014800031DA8282F0828020318AC28AF01B00106
:1001580031080319C42885146430F2000130CE2018
:1001680002308312AA000330A900BA30A800A80BF5
:10017800BB28A90BBB28AA0BBB2883128510B10189
:100188001A30A900F830A800A80BC828A90BC8285D
:1001980064004428F600F90176087902031808007B
:1001A800F701F8017208F300F40174087802031DDE
:1001B800DF28730877020318ED284230F300F30BA9
:1001C800E3286400043083128506F70A0319F80A45
:1001D800D628831205110230F5000330F400BA3036
:1001E800F300F30BF528F40BF528F50BF528F90ABD
:1001F800D0280B1C0C29103083168E000B108E0192
:100208008B11960101308500831285010000202999
:10021800643083123302031C1E29B301AF0A031989
:10022800B00A003030020B3003192F0203181E29C0
:10023800B101B10AB30A8C1071088A0070088300F2
:10024800FE0E7E0E0900AF01B001B101B201B3018B
:100258003C30A000A1010830A2000730A3008C3078
:10026800A4000A30A5001030A6000E30A7008301B4
:100278000B28F20083169B0172089A001C158B1339
:1002880055309D00AA309D009C149C1849298B1755
:100298001C1108009B011C141A08F400F5017508CC
:0802A800F3007408F2000800E5
:02400E00A431DB
:00000001FF
